{
  "_format": "hh-sol-artifact-1",
  "contractName": "WavePortal",
  "sourceName": "contracts/WavePortal.sol",
  "abi": [
    {
      "inputs": [],
      "stateMutability": "nonpayable",
      "type": "constructor"
    },
    {
      "anonymous": false,
      "inputs": [
        {
          "indexed": true,
          "internalType": "address",
          "name": "from",
          "type": "address"
        },
        {
          "indexed": false,
          "internalType": "uint256",
          "name": "timestamp",
          "type": "uint256"
        },
        {
          "indexed": false,
          "internalType": "string",
          "name": "message",
          "type": "string"
        }
      ],
      "name": "NewWave",
      "type": "event"
    },
    {
      "inputs": [],
      "name": "getAllWaves",
      "outputs": [
        {
          "components": [
            {
              "internalType": "address",
              "name": "waver",
              "type": "address"
            },
            {
              "internalType": "string",
              "name": "message",
              "type": "string"
            },
            {
              "internalType": "uint256",
              "name": "timestamp",
              "type": "uint256"
            }
          ],
          "internalType": "struct WavePortal.Wave[]",
          "name": "",
          "type": "tuple[]"
        }
      ],
      "stateMutability": "view",
      "type": "function"
    },
    {
      "inputs": [],
      "name": "getTotalWaves",
      "outputs": [
        {
          "internalType": "uint256",
          "name": "",
          "type": "uint256"
        }
      ],
      "stateMutability": "view",
      "type": "function"
    },
    {
      "inputs": [],
      "name": "getWavers",
      "outputs": [],
      "stateMutability": "view",
      "type": "function"
    },
    {
      "inputs": [
        {
          "internalType": "string",
          "name": "_message",
          "type": "string"
        }
      ],
      "name": "wave",
      "outputs": [],
      "stateMutability": "nonpayable",
      "type": "function"
    }
  ],
  "bytecode": "0x60806040523480156200001157600080fd5b5062000041604051806060016040528060308152602001620010e9603091396200004760201b620005891760201c565b620001db565b620000e7816040516024016200005e919062000154565b6040516020818303038152906040527f41304fac000000000000000000000000000000000000000000000000000000007bffffffffffffffffffffffffffffffffffffffffffffffffffffffff19166020820180517bffffffffffffffffffffffffffffffffffffffffffffffffffffffff8381831617835250505050620000ea60201b60201c565b50565b60008151905060006a636f6e736f6c652e6c6f679050602083016000808483855afa5050505050565b6000620001208262000178565b6200012c818562000183565b93506200013e81856020860162000194565b6200014981620001ca565b840191505092915050565b6000602082019050818103600083015262000170818462000113565b905092915050565b600081519050919050565b600082825260208201905092915050565b60005b83811015620001b457808201518184015260208101905062000197565b83811115620001c4576000848401525b50505050565b6000601f19601f8301169050919050565b610efe80620001eb6000396000f3fe608060405234801561001057600080fd5b506004361061004c5760003560e01c8063449d46c014610051578063635f29f81461006d5780639a2cdc0814610077578063bd43a90814610095575b600080fd5b61006b6004803603810190610066919061092d565b6100b3565b005b61007561028e565b005b61007f6103ed565b60405161008c9190610bde565b60405180910390f35b61009d610438565b6040516100aa9190610af5565b60405180910390f35b60016000808282546100c59190610cf0565b925050819055506001339080600181540180825580915050600190039060005260206000200160009091909190916101000a81548173ffffffffffffffffffffffffffffffffffffffff021916908373ffffffffffffffffffffffffffffffffffffffff16021790555061016f6040518060400160405280601881526020017f25732068617320776176656421206d65737361676520257300000000000000008152503383610622565b600260405180606001604052803373ffffffffffffffffffffffffffffffffffffffff16815260200183815260200142815250908060018154018082558091505060019003906000526020600020906003020160009091909190915060008201518160000160006101000a81548173ffffffffffffffffffffffffffffffffffffffff021916908373ffffffffffffffffffffffffffffffffffffffff160217905550602082015181600101908051906020019061022e929190610822565b506040820151816002015550503373ffffffffffffffffffffffffffffffffffffffff167f5f7e16dc676677766a70e9c5628aa6c54ddb8b6e5188e2ae1e1f17f1ffbea7164283604051610283929190610bf9565b60405180910390a250565b6000600180549050905061033c6040518060400160405280600c81526020017f46697273742077617665723a0000000000000000000000000000000000000000815250600160008154811061030c577f4e487b7100000000000000000000000000000000000000000000000000000000600052603260045260246000fd5b9060005260206000200160009054906101000a900473ffffffffffffffffffffffffffffffffffffffff166106c1565b6103ea6040518060400160405280600b81526020017f4c6173742077617665723a000000000000000000000000000000000000000000815250600180846103839190610d46565b815481106103ba577f4e487b7100000000000000000000000000000000000000000000000000000000600052603260045260246000fd5b9060005260206000200160009054906101000a900473ffffffffffffffffffffffffffffffffffffffff166106c1565b50565b60006104306040518060400160405280601681526020017f5765206861766520256420746f74616c2077617665730000000000000000000081525060005461075d565b600054905090565b60606002805480602002602001604051908101604052809291908181526020016000905b8282101561058057838290600052602060002090600302016040518060600160405290816000820160009054906101000a900473ffffffffffffffffffffffffffffffffffffffff1673ffffffffffffffffffffffffffffffffffffffff1673ffffffffffffffffffffffffffffffffffffffff1681526020016001820180546104e590610df8565b80601f016020809104026020016040519081016040528092919081815260200182805461051190610df8565b801561055e5780601f106105335761010080835404028352916020019161055e565b820191906000526020600020905b81548152906001019060200180831161054157829003601f168201915b505050505081526020016002820154815250508152602001906001019061045c565b50505050905090565b61061f8160405160240161059d9190610b17565b6040516020818303038152906040527f41304fac000000000000000000000000000000000000000000000000000000007bffffffffffffffffffffffffffffffffffffffffffffffffffffffff19166020820180517bffffffffffffffffffffffffffffffffffffffffffffffffffffffff83818316178352505050506107f9565b50565b6106bc83838360405160240161063a93929190610b69565b6040516020818303038152906040527fe0e9ad4f000000000000000000000000000000000000000000000000000000007bffffffffffffffffffffffffffffffffffffffffffffffffffffffff19166020820180517bffffffffffffffffffffffffffffffffffffffffffffffffffffffff83818316178352505050506107f9565b505050565b61075982826040516024016106d7929190610b39565b6040516020818303038152906040527f319af333000000000000000000000000000000000000000000000000000000007bffffffffffffffffffffffffffffffffffffffffffffffffffffffff19166020820180517bffffffffffffffffffffffffffffffffffffffffffffffffffffffff83818316178352505050506107f9565b5050565b6107f58282604051602401610773929190610bae565b6040516020818303038152906040527f9710a9d0000000000000000000000000000000000000000000000000000000007bffffffffffffffffffffffffffffffffffffffffffffffffffffffff19166020820180517bffffffffffffffffffffffffffffffffffffffffffffffffffffffff83818316178352505050506107f9565b5050565b60008151905060006a636f6e736f6c652e6c6f679050602083016000808483855afa5050505050565b82805461082e90610df8565b90600052602060002090601f0160209004810192826108505760008555610897565b82601f1061086957805160ff1916838001178555610897565b82800160010185558215610897579182015b8281111561089657825182559160200191906001019061087b565b5b5090506108a491906108a8565b5090565b5b808211156108c15760008160009055506001016108a9565b5090565b60006108d86108d384610c5a565b610c29565b9050828152602081018484840111156108f057600080fd5b6108fb848285610db6565b509392505050565b600082601f83011261091457600080fd5b81356109248482602086016108c5565b91505092915050565b60006020828403121561093f57600080fd5b600082013567ffffffffffffffff81111561095957600080fd5b61096584828501610903565b91505092915050565b600061097a8383610a87565b905092915050565b61098b81610d7a565b82525050565b61099a81610d7a565b82525050565b60006109ab82610c9a565b6109b58185610cbd565b9350836020820285016109c785610c8a565b8060005b85811015610a0357848403895281516109e4858261096e565b94506109ef83610cb0565b925060208a019950506001810190506109cb565b50829750879550505050505092915050565b6000610a2082610ca5565b610a2a8185610cce565b9350610a3a818560208601610dc5565b610a4381610eb7565b840191505092915050565b6000610a5982610ca5565b610a638185610cdf565b9350610a73818560208601610dc5565b610a7c81610eb7565b840191505092915050565b6000606083016000830151610a9f6000860182610982565b5060208301518482036020860152610ab78282610a15565b9150506040830151610acc6040860182610ad7565b508091505092915050565b610ae081610dac565b82525050565b610aef81610dac565b82525050565b60006020820190508181036000830152610b0f81846109a0565b905092915050565b60006020820190508181036000830152610b318184610a4e565b905092915050565b60006040820190508181036000830152610b538185610a4e565b9050610b626020830184610991565b9392505050565b60006060820190508181036000830152610b838186610a4e565b9050610b926020830185610991565b8181036040830152610ba48184610a4e565b9050949350505050565b60006040820190508181036000830152610bc88185610a4e565b9050610bd76020830184610ae6565b9392505050565b6000602082019050610bf36000830184610ae6565b92915050565b6000604082019050610c0e6000830185610ae6565b8181036020830152610c208184610a4e565b90509392505050565b6000604051905081810181811067ffffffffffffffff82111715610c5057610c4f610e88565b5b8060405250919050565b600067ffffffffffffffff821115610c7557610c74610e88565b5b601f19601f8301169050602081019050919050565b6000819050602082019050919050565b600081519050919050565b600081519050919050565b6000602082019050919050565b600082825260208201905092915050565b600082825260208201905092915050565b600082825260208201905092915050565b6000610cfb82610dac565b9150610d0683610dac565b9250827fffffffffffffffffffffffffffffffffffffffffffffffffffffffffffffffff03821115610d3b57610d3a610e2a565b5b828201905092915050565b6000610d5182610dac565b9150610d5c83610dac565b925082821015610d6f57610d6e610e2a565b5b828203905092915050565b6000610d8582610d8c565b9050919050565b600073ffffffffffffffffffffffffffffffffffffffff82169050919050565b6000819050919050565b82818337600083830152505050565b60005b83811015610de3578082015181840152602081019050610dc8565b83811115610df2576000848401525b50505050565b60006002820490506001821680610e1057607f821691505b60208210811415610e2457610e23610e59565b5b50919050565b7f4e487b7100000000000000000000000000000000000000000000000000000000600052601160045260246000fd5b7f4e487b7100000000000000000000000000000000000000000000000000000000600052602260045260246000fd5b7f4e487b7100000000000000000000000000000000000000000000000000000000600052604160045260246000fd5b6000601f19601f830116905091905056fea264697066735822122097b4859a786dea420326b84ace0c34e8ac33340549ee5d495d7a39fc06587a4c64736f6c63430008000033596f20796f2c204920616d206120636f6e747261637420616e64204920616d20736d6172742c20627920736b656c6c69",
  "linkReferences": {},
  "deployedLinkReferences": {}
}