{
  "_format": "hh-sol-artifact-1",
  "contractName": "WavePortal",
  "sourceName": "contracts/WavePortal.sol",
  "abi": [
    {
      "inputs": [],
      "stateMutability": "payable",
      "type": "constructor"
    },
    {
      "anonymous": false,
      "inputs": [
        {
          "indexed": true,
          "internalType": "address",
          "name": "from",
          "type": "address"
        },
        {
          "indexed": false,
          "internalType": "uint256",
          "name": "timestamp",
          "type": "uint256"
        },
        {
          "indexed": false,
          "internalType": "string",
          "name": "message",
          "type": "string"
        }
      ],
      "name": "NewWave",
      "type": "event"
    },
    {
      "inputs": [],
      "name": "getAllWaves",
      "outputs": [
        {
          "components": [
            {
              "internalType": "address",
              "name": "waver",
              "type": "address"
            },
            {
              "internalType": "string",
              "name": "message",
              "type": "string"
            },
            {
              "internalType": "uint256",
              "name": "timestamp",
              "type": "uint256"
            }
          ],
          "internalType": "struct WavePortal.Wave[]",
          "name": "",
          "type": "tuple[]"
        }
      ],
      "stateMutability": "view",
      "type": "function"
    },
    {
      "inputs": [],
      "name": "getTotalWaves",
      "outputs": [
        {
          "internalType": "uint256",
          "name": "",
          "type": "uint256"
        }
      ],
      "stateMutability": "view",
      "type": "function"
    },
    {
      "inputs": [],
      "name": "getWavers",
      "outputs": [],
      "stateMutability": "view",
      "type": "function"
    },
    {
      "inputs": [
        {
          "internalType": "string",
          "name": "_message",
          "type": "string"
        }
      ],
      "name": "wave",
      "outputs": [],
      "stateMutability": "nonpayable",
      "type": "function"
    }
  ],
  "bytecode": "0x608060405262000033604051806060016040528060308152602001620012f7603091396200003960201b620006851760201c565b620001cd565b620000d98160405160240162000050919062000146565b6040516020818303038152906040527f41304fac000000000000000000000000000000000000000000000000000000007bffffffffffffffffffffffffffffffffffffffffffffffffffffffff19166020820180517bffffffffffffffffffffffffffffffffffffffffffffffffffffffff8381831617835250505050620000dc60201b60201c565b50565b60008151905060006a636f6e736f6c652e6c6f679050602083016000808483855afa5050505050565b600062000112826200016a565b6200011e818562000175565b93506200013081856020860162000186565b6200013b81620001bc565b840191505092915050565b6000602082019050818103600083015262000162818462000105565b905092915050565b600081519050919050565b600082825260208201905092915050565b60005b83811015620001a657808201518184015260208101905062000189565b83811115620001b6576000848401525b50505050565b6000601f19601f8301169050919050565b61111a80620001dd6000396000f3fe608060405234801561001057600080fd5b506004361061004c5760003560e01c8063449d46c014610051578063635f29f81461006d5780639a2cdc0814610077578063bd43a90814610095575b600080fd5b61006b60048036038101906100669190610a29565b6100b3565b005b61007561038a565b005b61007f6104e9565b60405161008c9190610def565b60405180910390f35b61009d610534565b6040516100aa9190610cc6565b60405180910390f35b60016000808282546100c59190610f0c565b925050819055506001339080600181540180825580915050600190039060005260206000200160009091909190916101000a81548173ffffffffffffffffffffffffffffffffffffffff021916908373ffffffffffffffffffffffffffffffffffffffff16021790555061016f6040518060400160405280601881526020017f25732068617320776176656421206d6573736167652025730000000000000000815250338361071e565b600260405180606001604052803373ffffffffffffffffffffffffffffffffffffffff16815260200183815260200142815250908060018154018082558091505060019003906000526020600020906003020160009091909190915060008201518160000160006101000a81548173ffffffffffffffffffffffffffffffffffffffff021916908373ffffffffffffffffffffffffffffffffffffffff160217905550602082015181600101908051906020019061022e92919061091e565b506040820151816002015550503373ffffffffffffffffffffffffffffffffffffffff167f5f7e16dc676677766a70e9c5628aa6c54ddb8b6e5188e2ae1e1f17f1ffbea7164283604051610283929190610e0a565b60405180910390a26000655af3107a40009050478111156102d9576040517f08c379a00000000000000000000000000000000000000000000000000000000081526004016102d090610dcf565b60405180910390fd5b60003373ffffffffffffffffffffffffffffffffffffffff16826040516102ff90610cb1565b60006040518083038185875af1925050503d806000811461033c576040519150601f19603f3d011682016040523d82523d6000602084013e610341565b606091505b5050905080610385576040517f08c379a000000000000000000000000000000000000000000000000000000000815260040161037c90610daf565b60405180910390fd5b505050565b600060018054905090506104386040518060400160405280600c81526020017f46697273742077617665723a00000000000000000000000000000000000000008152506001600081548110610408577f4e487b7100000000000000000000000000000000000000000000000000000000600052603260045260246000fd5b9060005260206000200160009054906101000a900473ffffffffffffffffffffffffffffffffffffffff166107bd565b6104e66040518060400160405280600b81526020017f4c6173742077617665723a0000000000000000000000000000000000000000008152506001808461047f9190610f62565b815481106104b6577f4e487b7100000000000000000000000000000000000000000000000000000000600052603260045260246000fd5b9060005260206000200160009054906101000a900473ffffffffffffffffffffffffffffffffffffffff166107bd565b50565b600061052c6040518060400160405280601681526020017f5765206861766520256420746f74616c20776176657300000000000000000000815250600054610859565b600054905090565b60606002805480602002602001604051908101604052809291908181526020016000905b8282101561067c57838290600052602060002090600302016040518060600160405290816000820160009054906101000a900473ffffffffffffffffffffffffffffffffffffffff1673ffffffffffffffffffffffffffffffffffffffff1673ffffffffffffffffffffffffffffffffffffffff1681526020016001820180546105e190611014565b80601f016020809104026020016040519081016040528092919081815260200182805461060d90611014565b801561065a5780601f1061062f5761010080835404028352916020019161065a565b820191906000526020600020905b81548152906001019060200180831161063d57829003601f168201915b5050505050815260200160028201548152505081526020019060010190610558565b50505050905090565b61071b816040516024016106999190610ce8565b6040516020818303038152906040527f41304fac000000000000000000000000000000000000000000000000000000007bffffffffffffffffffffffffffffffffffffffffffffffffffffffff19166020820180517bffffffffffffffffffffffffffffffffffffffffffffffffffffffff83818316178352505050506108f5565b50565b6107b883838360405160240161073693929190610d3a565b6040516020818303038152906040527fe0e9ad4f000000000000000000000000000000000000000000000000000000007bffffffffffffffffffffffffffffffffffffffffffffffffffffffff19166020820180517bffffffffffffffffffffffffffffffffffffffffffffffffffffffff83818316178352505050506108f5565b505050565b61085582826040516024016107d3929190610d0a565b6040516020818303038152906040527f319af333000000000000000000000000000000000000000000000000000000007bffffffffffffffffffffffffffffffffffffffffffffffffffffffff19166020820180517bffffffffffffffffffffffffffffffffffffffffffffffffffffffff83818316178352505050506108f5565b5050565b6108f1828260405160240161086f929190610d7f565b6040516020818303038152906040527f9710a9d0000000000000000000000000000000000000000000000000000000007bffffffffffffffffffffffffffffffffffffffffffffffffffffffff19166020820180517bffffffffffffffffffffffffffffffffffffffffffffffffffffffff83818316178352505050506108f5565b5050565b60008151905060006a636f6e736f6c652e6c6f679050602083016000808483855afa5050505050565b82805461092a90611014565b90600052602060002090601f01602090048101928261094c5760008555610993565b82601f1061096557805160ff1916838001178555610993565b82800160010185558215610993579182015b82811115610992578251825591602001919060010190610977565b5b5090506109a091906109a4565b5090565b5b808211156109bd5760008160009055506001016109a5565b5090565b60006109d46109cf84610e6b565b610e3a565b9050828152602081018484840111156109ec57600080fd5b6109f7848285610fd2565b509392505050565b600082601f830112610a1057600080fd5b8135610a208482602086016109c1565b91505092915050565b600060208284031215610a3b57600080fd5b600082013567ffffffffffffffff811115610a5557600080fd5b610a61848285016109ff565b91505092915050565b6000610a768383610c43565b905092915050565b610a8781610f96565b82525050565b610a9681610f96565b82525050565b6000610aa782610eab565b610ab18185610ece565b935083602082028501610ac385610e9b565b8060005b85811015610aff5784840389528151610ae08582610a6a565b9450610aeb83610ec1565b925060208a01995050600181019050610ac7565b50829750879550505050505092915050565b6000610b1c82610eb6565b610b268185610eea565b9350610b36818560208601610fe1565b610b3f816110d3565b840191505092915050565b6000610b5582610eb6565b610b5f8185610efb565b9350610b6f818560208601610fe1565b610b78816110d3565b840191505092915050565b6000610b90601283610efb565b91507f4661696c656420746f20776974686472617700000000000000000000000000006000830152602082019050919050565b6000610bd0603483610efb565b91507f547279696e6720746f207769746864726177206d6f7265206d6f6e657920746860008301527f616e2074686520636f6e7472616374206861732e0000000000000000000000006020830152604082019050919050565b6000610c36600083610edf565b9150600082019050919050565b6000606083016000830151610c5b6000860182610a7e565b5060208301518482036020860152610c738282610b11565b9150506040830151610c886040860182610c93565b508091505092915050565b610c9c81610fc8565b82525050565b610cab81610fc8565b82525050565b6000610cbc82610c29565b9150819050919050565b60006020820190508181036000830152610ce08184610a9c565b905092915050565b60006020820190508181036000830152610d028184610b4a565b905092915050565b60006040820190508181036000830152610d248185610b4a565b9050610d336020830184610a8d565b9392505050565b60006060820190508181036000830152610d548186610b4a565b9050610d636020830185610a8d565b8181036040830152610d758184610b4a565b9050949350505050565b60006040820190508181036000830152610d998185610b4a565b9050610da86020830184610ca2565b9392505050565b60006020820190508181036000830152610dc881610b83565b9050919050565b60006020820190508181036000830152610de881610bc3565b9050919050565b6000602082019050610e046000830184610ca2565b92915050565b6000604082019050610e1f6000830185610ca2565b8181036020830152610e318184610b4a565b90509392505050565b6000604051905081810181811067ffffffffffffffff82111715610e6157610e606110a4565b5b8060405250919050565b600067ffffffffffffffff821115610e8657610e856110a4565b5b601f19601f8301169050602081019050919050565b6000819050602082019050919050565b600081519050919050565b600081519050919050565b6000602082019050919050565b600082825260208201905092915050565b600081905092915050565b600082825260208201905092915050565b600082825260208201905092915050565b6000610f1782610fc8565b9150610f2283610fc8565b9250827fffffffffffffffffffffffffffffffffffffffffffffffffffffffffffffffff03821115610f5757610f56611046565b5b828201905092915050565b6000610f6d82610fc8565b9150610f7883610fc8565b925082821015610f8b57610f8a611046565b5b828203905092915050565b6000610fa182610fa8565b9050919050565b600073ffffffffffffffffffffffffffffffffffffffff82169050919050565b6000819050919050565b82818337600083830152505050565b60005b83811015610fff578082015181840152602081019050610fe4565b8381111561100e576000848401525b50505050565b6000600282049050600182168061102c57607f821691505b602082108114156110405761103f611075565b5b50919050565b7f4e487b7100000000000000000000000000000000000000000000000000000000600052601160045260246000fd5b7f4e487b7100000000000000000000000000000000000000000000000000000000600052602260045260246000fd5b7f4e487b7100000000000000000000000000000000000000000000000000000000600052604160045260246000fd5b6000601f19601f830116905091905056fea264697066735822122029db0951febcbc10a6219b1ad6a125674f2c779e64964b6a9b6157d74dc0cc9464736f6c63430008000033596f20796f2c204920616d206120636f6e747261637420616e64204920616d20736d6172742c20627920736b656c6c69",
  "linkReferences": {},
  "deployedLinkReferences": {}
}