{
  "_format": "hh-sol-artifact-1",
  "contractName": "WavePortal",
  "sourceName": "contracts/WavePortal.sol",
  "abi": [
    {
      "inputs": [],
      "stateMutability": "nonpayable",
      "type": "constructor"
    },
    {
      "inputs": [],
      "name": "getTotalWaves",
      "outputs": [
        {
          "internalType": "uint256",
          "name": "",
          "type": "uint256"
        }
      ],
      "stateMutability": "view",
      "type": "function"
    },
    {
      "inputs": [],
      "name": "getWavers",
      "outputs": [],
      "stateMutability": "view",
      "type": "function"
    },
    {
      "inputs": [],
      "name": "wave",
      "outputs": [],
      "stateMutability": "nonpayable",
      "type": "function"
    }
  ],
  "bytecode": "0x608060405234801561001057600080fd5b5061003c60405180606001604052806030815260200161092b6030913961004160201b6102df1760201c565b6101c4565b6100dd816040516024016100559190610142565b6040516020818303038152906040527f41304fac000000000000000000000000000000000000000000000000000000007bffffffffffffffffffffffffffffffffffffffffffffffffffffffff19166020820180517bffffffffffffffffffffffffffffffffffffffffffffffffffffffff83818316178352505050506100e060201b60201c565b50565b60008151905060006a636f6e736f6c652e6c6f679050602083016000808483855afa5050505050565b600061011482610164565b61011e818561016f565b935061012e818560208601610180565b610137816101b3565b840191505092915050565b6000602082019050818103600083015261015c8184610109565b905092915050565b600081519050919050565b600082825260208201905092915050565b60005b8381101561019e578082015181840152602081019050610183565b838111156101ad576000848401525b50505050565b6000601f19601f8301169050919050565b610758806101d36000396000f3fe608060405234801561001057600080fd5b50600436106100415760003560e01c8063635f29f8146100465780636fe15b44146100505780639a2cdc081461005a575b600080fd5b61004e610078565b005b6100586101d7565b005b610062610294565b60405161006f91906105b2565b60405180910390f35b600060018054905090506101266040518060400160405280600c81526020017f46697273742077617665723a000000000000000000000000000000000000000081525060016000815481106100f6577f4e487b7100000000000000000000000000000000000000000000000000000000600052603260045260246000fd5b9060005260206000200160009054906101000a900473ffffffffffffffffffffffffffffffffffffffff16610378565b6101d46040518060400160405280600b81526020017f4c6173742077617665723a0000000000000000000000000000000000000000008152506001808461016d919061063f565b815481106101a4577f4e487b7100000000000000000000000000000000000000000000000000000000600052603260045260246000fd5b9060005260206000200160009054906101000a900473ffffffffffffffffffffffffffffffffffffffff16610378565b50565b60016000808282546101e991906105e9565b925050819055506001339080600181540180825580915050600190039060005260206000200160009091909190916101000a81548173ffffffffffffffffffffffffffffffffffffffff021916908373ffffffffffffffffffffffffffffffffffffffff1602179055506102926040518060400160405280600d81526020017f257320686173207761766564210000000000000000000000000000000000000081525033610378565b565b60006102d76040518060400160405280601681526020017f5765206861766520256420746f74616c20776176657300000000000000000000815250600054610414565b600054905090565b610375816040516024016102f39190610530565b6040516020818303038152906040527f41304fac000000000000000000000000000000000000000000000000000000007bffffffffffffffffffffffffffffffffffffffffffffffffffffffff19166020820180517bffffffffffffffffffffffffffffffffffffffffffffffffffffffff83818316178352505050506104b0565b50565b610410828260405160240161038e929190610552565b6040516020818303038152906040527f319af333000000000000000000000000000000000000000000000000000000007bffffffffffffffffffffffffffffffffffffffffffffffffffffffff19166020820180517bffffffffffffffffffffffffffffffffffffffffffffffffffffffff83818316178352505050506104b0565b5050565b6104ac828260405160240161042a929190610582565b6040516020818303038152906040527f9710a9d0000000000000000000000000000000000000000000000000000000007bffffffffffffffffffffffffffffffffffffffffffffffffffffffff19166020820180517bffffffffffffffffffffffffffffffffffffffffffffffffffffffff83818316178352505050506104b0565b5050565b60008151905060006a636f6e736f6c652e6c6f679050602083016000808483855afa5050505050565b6104e281610673565b82525050565b60006104f3826105cd565b6104fd81856105d8565b935061050d8185602086016106af565b61051681610711565b840191505092915050565b61052a816106a5565b82525050565b6000602082019050818103600083015261054a81846104e8565b905092915050565b6000604082019050818103600083015261056c81856104e8565b905061057b60208301846104d9565b9392505050565b6000604082019050818103600083015261059c81856104e8565b90506105ab6020830184610521565b9392505050565b60006020820190506105c76000830184610521565b92915050565b600081519050919050565b600082825260208201905092915050565b60006105f4826106a5565b91506105ff836106a5565b9250827fffffffffffffffffffffffffffffffffffffffffffffffffffffffffffffffff03821115610634576106336106e2565b5b828201905092915050565b600061064a826106a5565b9150610655836106a5565b925082821015610668576106676106e2565b5b828203905092915050565b600061067e82610685565b9050919050565b600073ffffffffffffffffffffffffffffffffffffffff82169050919050565b6000819050919050565b60005b838110156106cd5780820151818401526020810190506106b2565b838111156106dc576000848401525b50505050565b7f4e487b7100000000000000000000000000000000000000000000000000000000600052601160045260246000fd5b6000601f19601f830116905091905056fea2646970667358221220a2ac30b40936524f134d4b9dd7a4789798d613b042f08ff9dab6dd724968019564736f6c63430008000033596f20796f2c204920616d206120636f6e747261637420616e64204920616d20736d6172742c20627920736b656c6c69",
  "linkReferences": {},
  "deployedLinkReferences": {}
}