{
  "_format": "hh-sol-artifact-1",
  "contractName": "WavePortal",
  "sourceName": "contracts/WavePortal.sol",
  "abi": [
    {
      "inputs": [],
      "stateMutability": "payable",
      "type": "constructor"
    },
    {
      "anonymous": false,
      "inputs": [
        {
          "indexed": true,
          "internalType": "address",
          "name": "from",
          "type": "address"
        },
        {
          "indexed": false,
          "internalType": "uint256",
          "name": "timestamp",
          "type": "uint256"
        },
        {
          "indexed": false,
          "internalType": "string",
          "name": "message",
          "type": "string"
        }
      ],
      "name": "NewWave",
      "type": "event"
    },
    {
      "inputs": [],
      "name": "getAllWaves",
      "outputs": [
        {
          "components": [
            {
              "internalType": "address",
              "name": "waver",
              "type": "address"
            },
            {
              "internalType": "string",
              "name": "message",
              "type": "string"
            },
            {
              "internalType": "uint256",
              "name": "timestamp",
              "type": "uint256"
            }
          ],
          "internalType": "struct WavePortal.Wave[]",
          "name": "",
          "type": "tuple[]"
        }
      ],
      "stateMutability": "view",
      "type": "function"
    },
    {
      "inputs": [],
      "name": "getTotalWaves",
      "outputs": [
        {
          "internalType": "uint256",
          "name": "",
          "type": "uint256"
        }
      ],
      "stateMutability": "view",
      "type": "function"
    },
    {
      "inputs": [],
      "name": "getWavers",
      "outputs": [],
      "stateMutability": "view",
      "type": "function"
    },
    {
      "inputs": [
        {
          "internalType": "address",
          "name": "",
          "type": "address"
        }
      ],
      "name": "lastWavedAt",
      "outputs": [
        {
          "internalType": "uint256",
          "name": "",
          "type": "uint256"
        }
      ],
      "stateMutability": "view",
      "type": "function"
    },
    {
      "inputs": [
        {
          "internalType": "string",
          "name": "_message",
          "type": "string"
        }
      ],
      "name": "wave",
      "outputs": [],
      "stateMutability": "nonpayable",
      "type": "function"
    }
  ],
  "bytecode": "0x6080604052620000336040518060600160405280603081526020016200174a603091396200005b60201b620008a41760201c565b60644442620000439190620001a8565b6200004f919062000245565b600281905550620002ec565b620000fb8160405160240162000072919062000168565b6040516020818303038152906040527f41304fac000000000000000000000000000000000000000000000000000000007bffffffffffffffffffffffffffffffffffffffffffffffffffffffff19166020820180517bffffffffffffffffffffffffffffffffffffffffffffffffffffffff8381831617835250505050620000fe60201b60201c565b50565b60008151905060006a636f6e736f6c652e6c6f679050602083016000808483855afa5050505050565b600062000134826200018c565b62000140818562000197565b9350620001528185602086016200020f565b6200015d81620002db565b840191505092915050565b6000602082019050818103600083015262000184818462000127565b905092915050565b600081519050919050565b600082825260208201905092915050565b6000620001b58262000205565b9150620001c28362000205565b9250827fffffffffffffffffffffffffffffffffffffffffffffffffffffffffffffffff03821115620001fa57620001f96200027d565b5b828201905092915050565b6000819050919050565b60005b838110156200022f57808201518184015260208101905062000212565b838111156200023f576000848401525b50505050565b6000620002528262000205565b91506200025f8362000205565b925082620002725762000271620002ac565b5b828206905092915050565b7f4e487b7100000000000000000000000000000000000000000000000000000000600052601160045260246000fd5b7f4e487b7100000000000000000000000000000000000000000000000000000000600052601260045260246000fd5b6000601f19601f8301169050919050565b61144e80620002fc6000396000f3fe608060405234801561001057600080fd5b50600436106100575760003560e01c8063449d46c01461005c578063635f29f8146100785780639a2cdc0814610082578063a42a4663146100a0578063bd43a908146100d0575b600080fd5b61007660048036038101906100719190610c86565b6100ee565b005b610080610591565b005b61008a6106f0565b60405161009791906110ac565b60405180910390f35b6100ba60048036038101906100b59190610c5d565b61073b565b6040516100c791906110ac565b60405180910390f35b6100d8610753565b6040516100e59190610f63565b60405180910390f35b42610384600460003373ffffffffffffffffffffffffffffffffffffffff1673ffffffffffffffffffffffffffffffffffffffff1681526020019081526020016000205461013c91906111c9565b1061017c576040517f08c379a00000000000000000000000000000000000000000000000000000000081526004016101739061108c565b60405180910390fd5b42600460003373ffffffffffffffffffffffffffffffffffffffff1673ffffffffffffffffffffffffffffffffffffffff1681526020019081526020016000208190555060016000808282546101d291906111c9565b925050819055506001339080600181540180825580915050600190039060005260206000200160009091909190916101000a81548173ffffffffffffffffffffffffffffffffffffffff021916908373ffffffffffffffffffffffffffffffffffffffff16021790555061027c6040518060400160405280601881526020017f25732068617320776176656421206d6573736167652025730000000000000000815250338361093d565b600360405180606001604052803373ffffffffffffffffffffffffffffffffffffffff16815260200183815260200142815250908060018154018082558091505060019003906000526020600020906003020160009091909190915060008201518160000160006101000a81548173ffffffffffffffffffffffffffffffffffffffff021916908373ffffffffffffffffffffffffffffffffffffffff160217905550602082015181600101908051906020019061033b929190610b3d565b506040820151816002015550506064600254424461035991906111c9565b61036391906111c9565b61036d9190611303565b6002819055506103b46040518060400160405280601481526020017f52414e444f4d2047454e4552415445443a2025640000000000000000000000008152506002546109dc565b6032600254116104fe576103fd6040518060400160405280600781526020017f257320776f6e210000000000000000000000000000000000000000000000000081525033610a78565b6000655af3107a400090504781111561044b576040517f08c379a00000000000000000000000000000000000000000000000000000000081526004016104429061106c565b60405180910390fd5b60003373ffffffffffffffffffffffffffffffffffffffff168260405161047190610f4e565b60006040518083038185875af1925050503d80600081146104ae576040519150601f19603f3d011682016040523d82523d6000602084013e6104b3565b606091505b50509050806104f7576040517f08c379a00000000000000000000000000000000000000000000000000000000081526004016104ee9061104c565b60405180910390fd5b505061053e565b61053d6040518060400160405280600c81526020017f2573206469646e7420776f6e000000000000000000000000000000000000000081525033610a78565b5b3373ffffffffffffffffffffffffffffffffffffffff167f5f7e16dc676677766a70e9c5628aa6c54ddb8b6e5188e2ae1e1f17f1ffbea71642836040516105869291906110c7565b60405180910390a250565b6000600180549050905061063f6040518060400160405280600c81526020017f46697273742077617665723a0000000000000000000000000000000000000000815250600160008154811061060f577f4e487b7100000000000000000000000000000000000000000000000000000000600052603260045260246000fd5b9060005260206000200160009054906101000a900473ffffffffffffffffffffffffffffffffffffffff16610a78565b6106ed6040518060400160405280600b81526020017f4c6173742077617665723a00000000000000000000000000000000000000000081525060018084610686919061121f565b815481106106bd577f4e487b7100000000000000000000000000000000000000000000000000000000600052603260045260246000fd5b9060005260206000200160009054906101000a900473ffffffffffffffffffffffffffffffffffffffff16610a78565b50565b60006107336040518060400160405280601681526020017f5765206861766520256420746f74616c207761766573000000000000000000008152506000546109dc565b600054905090565b60046020528060005260406000206000915090505481565b60606003805480602002602001604051908101604052809291908181526020016000905b8282101561089b57838290600052602060002090600302016040518060600160405290816000820160009054906101000a900473ffffffffffffffffffffffffffffffffffffffff1673ffffffffffffffffffffffffffffffffffffffff1673ffffffffffffffffffffffffffffffffffffffff168152602001600182018054610800906112d1565b80601f016020809104026020016040519081016040528092919081815260200182805461082c906112d1565b80156108795780601f1061084e57610100808354040283529160200191610879565b820191906000526020600020905b81548152906001019060200180831161085c57829003601f168201915b5050505050815260200160028201548152505081526020019060010190610777565b50505050905090565b61093a816040516024016108b89190610f85565b6040516020818303038152906040527f41304fac000000000000000000000000000000000000000000000000000000007bffffffffffffffffffffffffffffffffffffffffffffffffffffffff19166020820180517bffffffffffffffffffffffffffffffffffffffffffffffffffffffff8381831617835250505050610b14565b50565b6109d783838360405160240161095593929190610fd7565b6040516020818303038152906040527fe0e9ad4f000000000000000000000000000000000000000000000000000000007bffffffffffffffffffffffffffffffffffffffffffffffffffffffff19166020820180517bffffffffffffffffffffffffffffffffffffffffffffffffffffffff8381831617835250505050610b14565b505050565b610a7482826040516024016109f292919061101c565b6040516020818303038152906040527f9710a9d0000000000000000000000000000000000000000000000000000000007bffffffffffffffffffffffffffffffffffffffffffffffffffffffff19166020820180517bffffffffffffffffffffffffffffffffffffffffffffffffffffffff8381831617835250505050610b14565b5050565b610b108282604051602401610a8e929190610fa7565b6040516020818303038152906040527f319af333000000000000000000000000000000000000000000000000000000007bffffffffffffffffffffffffffffffffffffffffffffffffffffffff19166020820180517bffffffffffffffffffffffffffffffffffffffffffffffffffffffff8381831617835250505050610b14565b5050565b60008151905060006a636f6e736f6c652e6c6f679050602083016000808483855afa5050505050565b828054610b49906112d1565b90600052602060002090601f016020900481019282610b6b5760008555610bb2565b82601f10610b8457805160ff1916838001178555610bb2565b82800160010185558215610bb2579182015b82811115610bb1578251825591602001919060010190610b96565b5b509050610bbf9190610bc3565b5090565b5b80821115610bdc576000816000905550600101610bc4565b5090565b6000610bf3610bee84611128565b6110f7565b905082815260208101848484011115610c0b57600080fd5b610c1684828561128f565b509392505050565b600081359050610c2d81611401565b92915050565b600082601f830112610c4457600080fd5b8135610c54848260208601610be0565b91505092915050565b600060208284031215610c6f57600080fd5b6000610c7d84828501610c1e565b91505092915050565b600060208284031215610c9857600080fd5b600082013567ffffffffffffffff811115610cb257600080fd5b610cbe84828501610c33565b91505092915050565b6000610cd38383610ee0565b905092915050565b610ce481611253565b82525050565b610cf381611253565b82525050565b6000610d0482611168565b610d0e818561118b565b935083602082028501610d2085611158565b8060005b85811015610d5c5784840389528151610d3d8582610cc7565b9450610d488361117e565b925060208a01995050600181019050610d24565b50829750879550505050505092915050565b6000610d7982611173565b610d8381856111a7565b9350610d9381856020860161129e565b610d9c816113f0565b840191505092915050565b6000610db282611173565b610dbc81856111b8565b9350610dcc81856020860161129e565b610dd5816113f0565b840191505092915050565b6000610ded6012836111b8565b91507f4661696c656420746f20776974686472617700000000000000000000000000006000830152602082019050919050565b6000610e2d6034836111b8565b91507f547279696e6720746f207769746864726177206d6f7265206d6f6e657920746860008301527f616e2074686520636f6e7472616374206861732e0000000000000000000000006020830152604082019050919050565b6000610e9360008361119c565b9150600082019050919050565b6000610ead600b836111b8565b91507f57616974203135206d696e0000000000000000000000000000000000000000006000830152602082019050919050565b6000606083016000830151610ef86000860182610cdb565b5060208301518482036020860152610f108282610d6e565b9150506040830151610f256040860182610f30565b508091505092915050565b610f3981611285565b82525050565b610f4881611285565b82525050565b6000610f5982610e86565b9150819050919050565b60006020820190508181036000830152610f7d8184610cf9565b905092915050565b60006020820190508181036000830152610f9f8184610da7565b905092915050565b60006040820190508181036000830152610fc18185610da7565b9050610fd06020830184610cea565b9392505050565b60006060820190508181036000830152610ff18186610da7565b90506110006020830185610cea565b81810360408301526110128184610da7565b9050949350505050565b600060408201905081810360008301526110368185610da7565b90506110456020830184610f3f565b9392505050565b6000602082019050818103600083015261106581610de0565b9050919050565b6000602082019050818103600083015261108581610e20565b9050919050565b600060208201905081810360008301526110a581610ea0565b9050919050565b60006020820190506110c16000830184610f3f565b92915050565b60006040820190506110dc6000830185610f3f565b81810360208301526110ee8184610da7565b90509392505050565b6000604051905081810181811067ffffffffffffffff8211171561111e5761111d6113c1565b5b8060405250919050565b600067ffffffffffffffff821115611143576111426113c1565b5b601f19601f8301169050602081019050919050565b6000819050602082019050919050565b600081519050919050565b600081519050919050565b6000602082019050919050565b600082825260208201905092915050565b600081905092915050565b600082825260208201905092915050565b600082825260208201905092915050565b60006111d482611285565b91506111df83611285565b9250827fffffffffffffffffffffffffffffffffffffffffffffffffffffffffffffffff0382111561121457611213611334565b5b828201905092915050565b600061122a82611285565b915061123583611285565b92508282101561124857611247611334565b5b828203905092915050565b600061125e82611265565b9050919050565b600073ffffffffffffffffffffffffffffffffffffffff82169050919050565b6000819050919050565b82818337600083830152505050565b60005b838110156112bc5780820151818401526020810190506112a1565b838111156112cb576000848401525b50505050565b600060028204905060018216806112e957607f821691505b602082108114156112fd576112fc611392565b5b50919050565b600061130e82611285565b915061131983611285565b92508261132957611328611363565b5b828206905092915050565b7f4e487b7100000000000000000000000000000000000000000000000000000000600052601160045260246000fd5b7f4e487b7100000000000000000000000000000000000000000000000000000000600052601260045260246000fd5b7f4e487b7100000000000000000000000000000000000000000000000000000000600052602260045260246000fd5b7f4e487b7100000000000000000000000000000000000000000000000000000000600052604160045260246000fd5b6000601f19601f8301169050919050565b61140a81611253565b811461141557600080fd5b5056fea26469706673582212202f1b79869b4f13849cbff7d2c19573826290891ee0a30ce1eaa67f990ef2e03964736f6c63430008000033596f20796f2c204920616d206120636f6e747261637420616e64204920616d20736d6172742c20627920736b656c6c69",
  "linkReferences": {},
  "deployedLinkReferences": {}
}